{
  "_format": "hh-sol-artifact-1",
  "contractName": "LimitOrder",
  "sourceName": "contracts/flatten/LimitOrder.sol",
  "abi": [
    {
      "inputs": [
        {
          "internalType": "address",
          "name": "_router",
          "type": "address"
        },
        {
          "internalType": "address",
          "name": "_receiver",
          "type": "address"
        }
      ],
      "stateMutability": "nonpayable",
      "type": "constructor"
    },
    {
      "anonymous": false,
      "inputs": [
        {
          "indexed": true,
          "internalType": "address",
          "name": "previousOwner",
          "type": "address"
        },
        {
          "indexed": true,
          "internalType": "address",
          "name": "newOwner",
          "type": "address"
        }
      ],
      "name": "OwnershipTransferred",
      "type": "event"
    },
    {
      "anonymous": false,
      "inputs": [
        {
          "indexed": false,
          "internalType": "address",
          "name": "userAddress",
          "type": "address"
        },
        {
          "indexed": false,
          "internalType": "uint256",
          "name": "taskId",
          "type": "uint256"
        }
      ],
      "name": "cancelTaskEvent",
      "type": "event"
    },
    {
      "anonymous": false,
      "inputs": [
        {
          "indexed": false,
          "internalType": "address",
          "name": "userAddress",
          "type": "address"
        },
        {
          "indexed": false,
          "internalType": "uint256",
          "name": "taskId",
          "type": "uint256"
        },
        {
          "indexed": false,
          "internalType": "address",
          "name": "inToken",
          "type": "address"
        },
        {
          "indexed": false,
          "internalType": "address",
          "name": "outToken",
          "type": "address"
        },
        {
          "indexed": false,
          "internalType": "uint256",
          "name": "inExactNum",
          "type": "uint256"
        },
        {
          "indexed": false,
          "internalType": "uint256",
          "name": "minOut",
          "type": "uint256"
        },
        {
          "indexed": false,
          "internalType": "uint256",
          "name": "deadline",
          "type": "uint256"
        }
      ],
      "name": "createTaskEvent",
      "type": "event"
    },
    {
      "anonymous": false,
      "inputs": [
        {
          "indexed": false,
          "internalType": "address",
          "name": "userAddress",
          "type": "address"
        },
        {
          "indexed": false,
          "internalType": "uint256",
          "name": "taskId",
          "type": "uint256"
        }
      ],
      "name": "execTaskEvent",
      "type": "event"
    },
    {
      "stateMutability": "payable",
      "type": "fallback"
    },
    {
      "inputs": [
        {
          "internalType": "address",
          "name": "userAddress",
          "type": "address"
        },
        {
          "internalType": "uint256",
          "name": "taskId",
          "type": "uint256"
        }
      ],
      "name": "cancelTask",
      "outputs": [],
      "stateMutability": "nonpayable",
      "type": "function"
    },
    {
      "inputs": [
        {
          "internalType": "address",
          "name": "inToken",
          "type": "address"
        },
        {
          "internalType": "address",
          "name": "outToken",
          "type": "address"
        },
        {
          "internalType": "uint256",
          "name": "inExactNum",
          "type": "uint256"
        },
        {
          "internalType": "uint256",
          "name": "minOut",
          "type": "uint256"
        }
      ],
      "name": "checkSwapTokenToTokenValid",
      "outputs": [
        {
          "internalType": "bool",
          "name": "",
          "type": "bool"
        },
        {
          "internalType": "address[]",
          "name": "",
          "type": "address[]"
        }
      ],
      "stateMutability": "view",
      "type": "function"
    },
    {
      "inputs": [
        {
          "internalType": "address[]",
          "name": "path",
          "type": "address[]"
        },
        {
          "internalType": "uint256",
          "name": "inExactNum",
          "type": "uint256"
        },
        {
          "internalType": "uint256",
          "name": "minOut",
          "type": "uint256"
        }
      ],
      "name": "checkSwapVaildByPath",
      "outputs": [
        {
          "internalType": "bool",
          "name": "",
          "type": "bool"
        }
      ],
      "stateMutability": "view",
      "type": "function"
    },
    {
      "inputs": [
        {
          "internalType": "address",
          "name": "inToken",
          "type": "address"
        },
        {
          "internalType": "address",
          "name": "outToken",
          "type": "address"
        },
        {
          "internalType": "uint256",
          "name": "inExactNum",
          "type": "uint256"
        },
        {
          "internalType": "uint256",
          "name": "minOut",
          "type": "uint256"
        }
      ],
      "name": "checkSwapValid",
      "outputs": [
        {
          "internalType": "bool",
          "name": "",
          "type": "bool"
        },
        {
          "internalType": "address[]",
          "name": "",
          "type": "address[]"
        }
      ],
      "stateMutability": "view",
      "type": "function"
    },
    {
      "inputs": [
        {
          "internalType": "address",
          "name": "userAddress",
          "type": "address"
        },
        {
          "internalType": "uint256",
          "name": "taskId",
          "type": "uint256"
        }
      ],
      "name": "checkTaskCanExec",
      "outputs": [
        {
          "internalType": "bool",
          "name": "",
          "type": "bool"
        }
      ],
      "stateMutability": "view",
      "type": "function"
    },
    {
      "inputs": [
        {
          "internalType": "address",
          "name": "inToken",
          "type": "address"
        },
        {
          "internalType": "address",
          "name": "outToken",
          "type": "address"
        },
        {
          "internalType": "uint256",
          "name": "inExactNum",
          "type": "uint256"
        },
        {
          "internalType": "uint256",
          "name": "minOut",
          "type": "uint256"
        },
        {
          "internalType": "uint256",
          "name": "expireTime",
          "type": "uint256"
        }
      ],
      "name": "createTask",
      "outputs": [
        {
          "internalType": "uint256",
          "name": "",
          "type": "uint256"
        }
      ],
      "stateMutability": "payable",
      "type": "function"
    },
    {
      "inputs": [
        {
          "internalType": "address",
          "name": "userAddress",
          "type": "address"
        },
        {
          "internalType": "uint256",
          "name": "taskId",
          "type": "uint256"
        }
      ],
      "name": "execTask",
      "outputs": [],
      "stateMutability": "nonpayable",
      "type": "function"
    },
    {
      "inputs": [],
      "name": "factory",
      "outputs": [
        {
          "internalType": "contract IUniswapV2Factory",
          "name": "",
          "type": "address"
        }
      ],
      "stateMutability": "view",
      "type": "function"
    },
    {
      "inputs": [],
      "name": "getLength",
      "outputs": [
        {
          "internalType": "uint256",
          "name": "",
          "type": "uint256"
        }
      ],
      "stateMutability": "view",
      "type": "function"
    },
    {
      "inputs": [
        {
          "internalType": "uint256",
          "name": "from",
          "type": "uint256"
        },
        {
          "internalType": "uint256",
          "name": "offset",
          "type": "uint256"
        }
      ],
      "name": "getOrderInfo",
      "outputs": [
        {
          "components": [
            {
              "internalType": "uint256",
              "name": "index",
              "type": "uint256"
            },
            {
              "internalType": "address",
              "name": "inToken",
              "type": "address"
            },
            {
              "internalType": "address",
              "name": "outToken",
              "type": "address"
            },
            {
              "internalType": "uint256",
              "name": "inExactAmount",
              "type": "uint256"
            },
            {
              "internalType": "uint256",
              "name": "outMinAmount",
              "type": "uint256"
            },
            {
              "internalType": "uint256",
              "name": "deadline",
              "type": "uint256"
            },
            {
              "internalType": "address",
              "name": "userAddress",
              "type": "address"
            },
            {
              "internalType": "enum OrderStatus",
              "name": "orderStatus",
              "type": "uint8"
            }
          ],
          "internalType": "struct SingleOrder[]",
          "name": "",
          "type": "tuple[]"
        }
      ],
      "stateMutability": "view",
      "type": "function"
    },
    {
      "inputs": [
        {
          "internalType": "uint256",
          "name": "",
          "type": "uint256"
        }
      ],
      "name": "orderList",
      "outputs": [
        {
          "internalType": "address",
          "name": "",
          "type": "address"
        }
      ],
      "stateMutability": "view",
      "type": "function"
    },
    {
      "inputs": [],
      "name": "owner",
      "outputs": [
        {
          "internalType": "address",
          "name": "",
          "type": "address"
        }
      ],
      "stateMutability": "view",
      "type": "function"
    },
    {
      "inputs": [],
      "name": "renounceOwnership",
      "outputs": [],
      "stateMutability": "nonpayable",
      "type": "function"
    },
    {
      "inputs": [],
      "name": "router",
      "outputs": [
        {
          "internalType": "contract IUniswapV2Router02",
          "name": "",
          "type": "address"
        }
      ],
      "stateMutability": "view",
      "type": "function"
    },
    {
      "inputs": [
        {
          "internalType": "address",
          "name": "_taskTreasury",
          "type": "address"
        }
      ],
      "name": "setTreasury",
      "outputs": [],
      "stateMutability": "nonpayable",
      "type": "function"
    },
    {
      "inputs": [],
      "name": "taskTreasury",
      "outputs": [
        {
          "internalType": "contract ITaskTreasury",
          "name": "",
          "type": "address"
        }
      ],
      "stateMutability": "view",
      "type": "function"
    },
    {
      "inputs": [
        {
          "internalType": "address",
          "name": "newOwner",
          "type": "address"
        }
      ],
      "name": "transferOwnership",
      "outputs": [],
      "stateMutability": "nonpayable",
      "type": "function"
    }
  ],
  "bytecode": "0x60c06040523480156200001157600080fd5b5060405162002f2d38038062002f2d83398101604081905262000034916200014f565b6200003f33620000e2565b6001600160a01b03821660808190526040805163c45a015560e01b8152905163c45a0155916004808201926020929091908290030181865afa1580156200008a573d6000803e3d6000fd5b505050506040513d601f19601f82011682018060405250810190620000b0919062000187565b6001600160a01b0390811660a0526000600455600580546001600160a01b0319169290911691909117905550620001ac565b600080546001600160a01b038381166001600160a01b0319831681178455604051919092169283917f8be0079c531659141344cd1fd0a4f28419497f9722a3daafe3b4186f6b6457e09190a35050565b80516001600160a01b03811681146200014a57600080fd5b919050565b600080604083850312156200016357600080fd5b6200016e8362000132565b91506200017e6020840162000132565b90509250929050565b6000602082840312156200019a57600080fd5b620001a58262000132565b9392505050565b60805160a051612d0e6200021f6000396000818161028d01528181610e970152610faa01526000818161034e0152818161059801528181610711015281816107b90152818161086b015281816111800152818161123c015281816115b10152818161164f01526117430152612d0e6000f3fe6080604052600436106100f55760003560e01c80638da5cb5b1161008f578063d08c256a11610061578063d08c256a146102af578063e60a3213146102dc578063f0f44260146102fc578063f2fde38b1461031c578063f887ea401461033c57005b80638da5cb5b14610228578063983a839d14610246578063be1c766b14610266578063c45a01551461027b57005b80636d8a4155116100c85780636d8a41551461018d578063715018a6146101bb57806376f75e7f146101d057806386be69cc1461020857005b806310c1367e146100f75780634359ddc5146101175780634ad3cccf1461013d5780636adfd7c41461016d575b005b34801561010357600080fd5b506100f561011236600461261e565b610370565b61012a61012536600461264a565b6109aa565b6040519081526020015b60405180910390f35b34801561014957600080fd5b5061015d610158366004612706565b610e0e565b6040519015158152602001610134565b34801561017957600080fd5b5061015d61018836600461261e565b611016565b34801561019957600080fd5b506101ad6101a83660046127b5565b6110fd565b60405161013492919061283f565b3480156101c757600080fd5b506100f56112d8565b3480156101dc57600080fd5b506101f06101eb36600461285a565b6112ec565b6040516001600160a01b039091168152602001610134565b34801561021457600080fd5b506100f561022336600461261e565b611316565b34801561023457600080fd5b506000546001600160a01b03166101f0565b34801561025257600080fd5b506101ad6102613660046127b5565b61150a565b34801561027257600080fd5b5060035461012a565b34801561028757600080fd5b506101f07f000000000000000000000000000000000000000000000000000000000000000081565b3480156102bb57600080fd5b506102cf6102ca366004612873565b61184d565b60405161013491906128cd565b3480156102e857600080fd5b506001546101f0906001600160a01b031681565b34801561030857600080fd5b506100f5610317366004612976565b611ace565b34801561032857600080fd5b506100f5610337366004612976565b611af8565b34801561034857600080fd5b506101f07f000000000000000000000000000000000000000000000000000000000000000081565b610378611b71565b6001600160a01b038216600090815260026020908152604080832084845291829052822090916006820154600160a01b900460ff1660038111156103be576103be612895565b14156103e55760405162461bcd60e51b81526004016103dc90612993565b60405180910390fd5b60016006820154600160a01b900460ff16600381111561040757610407612895565b146104245760405162461bcd60e51b81526004016103dc906129bf565b428160050154101561046b5760405162461bcd60e51b815260206004820152601060248201526f13dc99195c881a5cc8115e1c1a5c995960821b60448201526064016103dc565b60018054908201546003830154604051631bc64ab360e21b81526001600160a01b03928316600482015260248101919091528682166044820152911690636f192acc90606401600060405180830381600087803b1580156104cb57600080fd5b505af11580156104df573d6000803e3d6000fd5b5050505060006104f28260030154611bc9565b6001830154600284015460048501549293506000928392610523926001600160a01b039182169291169086906110fd565b909250905060018215151461056d5760405162461bcd60e51b815260206004820152601060248201526f737761702063616e6e6f74206578656360801b60448201526064016103dc565b60018401546001600160a01b031673eeeeeeeeeeeeeeeeeeeeeeeeeeeeeeeeeeeeeeee1415610647577f00000000000000000000000000000000000000000000000000000000000000006001600160a01b0316637ff36ab5848660040154848b426104b06105db9190612a01565b6040518663ffffffff1660e01b81526004016105fa9493929190612a19565b60006040518083038185885af1158015610618573d6000803e3d6000fd5b50505050506040513d6000823e601f3d908101601f191682016040526106419190810190612a4e565b50610919565b600184015460038501546040516370a0823160e01b81523060048201526001600160a01b039092169182906370a0823190602401602060405180830381865afa158015610698573d6000803e3d6000fd5b505050506040513d601f19601f820116820180604052508101906106bc9190612ad4565b146106fa5760405162461bcd60e51b815260206004820152600e60248201526d3ab9b2a33ab732399032b93937b960911b60448201526064016103dc565b60405163095ea7b360e01b81526001600160a01b037f0000000000000000000000000000000000000000000000000000000000000000811660048301526024820186905282169063095ea7b3906044016020604051808303816000875af1158015610769573d6000803e3d6000fd5b505050506040513d601f19601f8201168201806040525081019061078d9190612aed565b5060028501546001600160a01b031673eeeeeeeeeeeeeeeeeeeeeeeeeeeeeeeeeeeeeeee1415610869577f00000000000000000000000000000000000000000000000000000000000000006001600160a01b03166318cbafe5858760040154858c426104b06107fc9190612a01565b6040518663ffffffff1660e01b815260040161081c959493929190612b0f565b6000604051808303816000875af115801561083b573d6000803e3d6000fd5b505050506040513d6000823e601f3d908101601f191682016040526108639190810190612a4e565b50610917565b7f00000000000000000000000000000000000000000000000000000000000000006001600160a01b03166338ed1739858760040154858c426104b06108ae9190612a01565b6040518663ffffffff1660e01b81526004016108ce959493929190612b0f565b6000604051808303816000875af11580156108ed573d6000803e3d6000fd5b505050506040513d6000823e601f3d908101601f191682016040526109159190810190612a4e565b505b505b60055460018501546003860154610948926001600160a01b03908116921690610943908790612b4b565b611be4565b600684018054600160a11b60ff60a01b19909116179055604080516001600160a01b0389168152602081018890527f024ab9c11da58e6d347fff9de4767c1e4af7da69aad12008e5677626b93f8ce0910160405180910390a150505050505050565b60006109b4611b71565b6001600160a01b03861673eeeeeeeeeeeeeeeeeeeeeeeeeeeeeeeeeeeeeeee1415610a8e57833414610a1b5760405162461bcd60e51b815260206004820152601060248201526f22aa241020b6b7bab73a1022b93937b960811b60448201526064016103dc565b60015460405163c1461d5760e01b81523360048201526001600160a01b038881166024830152604482018790529091169063c1461d579086906064016000604051808303818588803b158015610a7057600080fd5b505af1158015610a84573d6000803e3d6000fd5b5050505050610cb2565b604051636eb1769f60e11b815233600482015230602482015286906000906001600160a01b0383169063dd62ed3e90604401602060405180830381865afa158015610add573d6000803e3d6000fd5b505050506040513d601f19601f82011682018060405250810190610b019190612ad4565b905085811015610b535760405162461bcd60e51b815260206004820152601960248201527f436865636b2074686520746f6b656e20616c6c6f77616e63650000000000000060448201526064016103dc565b6040516323b872dd60e01b8152336004820152306024820152604481018790526001600160a01b038316906323b872dd906064016020604051808303816000875af1158015610ba6573d6000803e3d6000fd5b505050506040513d601f19601f82011682018060405250810190610bca9190612aed565b5060015460405163095ea7b360e01b81526001600160a01b039182166004820152602481018890529083169063095ea7b3906044016020604051808303816000875af1158015610c1e573d6000803e3d6000fd5b505050506040513d601f19601f82011682018060405250810190610c429190612aed565b5060015460405163c1461d5760e01b81523360048201526001600160a01b038a81166024830152604482018990529091169063c1461d5790606401600060405180830381600087803b158015610c9757600080fd5b505af1158015610cab573d6000803e3d6000fd5b5050505050505b336000818152600260208181526040808420600480548652928190529084206003805460018082018355968290527fc2575a0e9e593c00f959f8c92f12db2869c3395a3b0502d05e2516446f71f85b0180546001600160a01b0319908116891790915584548355958201805487166001600160a01b038f81169190911790915594820180548716958d1695909517909455928301899055908201879055600682018054909316909317909155610d688442612a01565b6005820181905560068201805460ff60a01b1916600160a01b17905581546040805133815260208101929092526001600160a01b038b8116838301528a1660608301526080820189905260a0820188905260c082019290925290517f28a2a79cb8a7fa3013da159d00565f034030c44bcdc5ce7ebc3758f6374b52a49181900360e00190a160048054906000610dfd83612b62565b909155505054979650505050505050565b6000600284511015610e725760405162461bcd60e51b815260206004820152602760248201527f70617468206c656e677468206973207265717569726564206e6f74206c657373604482015266103a3430b7101960c91b60648201526084016103dc565b60005b60018551610e839190612b4b565b811015610fa25760006001600160a01b03167f00000000000000000000000000000000000000000000000000000000000000006001600160a01b031663e6a43905878481518110610ed657610ed6612b7d565b602002602001015188856001610eec9190612a01565b81518110610efc57610efc612b7d565b60200260200101516040518363ffffffff1660e01b8152600401610f369291906001600160a01b0392831681529116602082015260400190565b602060405180830381865afa158015610f53573d6000803e3d6000fd5b505050506040513d601f19601f82011682018060405250810190610f779190612b93565b6001600160a01b03161415610f9057600091505061100f565b80610f9a81612b62565b915050610e75565b506000610fd07f00000000000000000000000000000000000000000000000000000000000000008587611cc2565b9050828160018351610fe29190612b4b565b81518110610ff257610ff2612b7d565b60200260200101511061100957600191505061100f565b60009150505b9392505050565b6001600160a01b0382166000908152600260209081526040808320848452918290528220826006820154600160a01b900460ff16600381111561105b5761105b612895565b14156110795760405162461bcd60e51b81526004016103dc90612993565b60016006820154600160a01b900460ff16600381111561109b5761109b612895565b146110b85760405162461bcd60e51b81526004016103dc906129bf565b6001810154600282015460038301546000926110f0926001600160a01b03918216929116906110e690611bc9565b85600401546110fd565b5093505050505b92915050565b60006060846001600160a01b0316866001600160a01b031614156111565760405162461bcd60e51b815260206004820152601060248201526f39b0b6b2903a37b5b2b71032b93937b960811b60448201526064016103dc565b6001600160a01b03861673eeeeeeeeeeeeeeeeeeeeeeeeeeeeeeeeeeeeeeee1415611211576112087f00000000000000000000000000000000000000000000000000000000000000006001600160a01b031663ad5c46486040518163ffffffff1660e01b8152600401602060405180830381865afa1580156111dc573d6000803e3d6000fd5b505050506040513d601f19601f820116820180604052508101906112009190612b93565b86868661150a565b915091506112cf565b6001600160a01b03851673eeeeeeeeeeeeeeeeeeeeeeeeeeeeeeeeeeeeeeee14156112c357611208867f00000000000000000000000000000000000000000000000000000000000000006001600160a01b031663ad5c46486040518163ffffffff1660e01b8152600401602060405180830381865afa158015611298573d6000803e3d6000fd5b505050506040513d601f19601f820116820180604052508101906112bc9190612b93565b868661150a565b6112088686868661150a565b94509492505050565b6112e0611e45565b6112ea6000611e9f565b565b600381815481106112fc57600080fd5b6000918252602090912001546001600160a01b0316905081565b61131e611b71565b6001600160a01b038216600081815260026020908152604080832085845291829052909120909133148061135c57506000546001600160a01b031633145b6113955760405162461bcd60e51b815260206004820152600a6024820152693ab9b2b91032b93937b960b11b60448201526064016103dc565b60006006820154600160a01b900460ff1660038111156113b7576113b7612895565b14156113d55760405162461bcd60e51b81526004016103dc90612993565b60016006820154600160a01b900460ff1660038111156113f7576113f7612895565b146114145760405162461bcd60e51b81526004016103dc906129bf565b60018054908201546003830154604051631bc64ab360e21b81526001600160a01b03928316600482015260248101919091528682166044820152911690636f192acc90606401600060405180830381600087803b15801561147457600080fd5b505af1158015611488573d6000803e3d6000fd5b505050600182015460038301546114ab925086916001600160a01b031690611be4565b600681018054600360a01b60ff60a01b19909116179055604080516001600160a01b0386168152602081018590527f87479b54fef2a4d0916d52df11946c071a27eefeb73bb56d56d3b2c50aec8c06910160405180910390a150505050565b6040805160028082526060828101909352600092918391816020016020820280368337019050509050868160008151811061154757611547612b7d565b60200260200101906001600160a01b031690816001600160a01b031681525050858160018151811061157b5761157b612b7d565b60200260200101906001600160a01b031690816001600160a01b03168152505060006115a8828787610e0e565b905080611841577f00000000000000000000000000000000000000000000000000000000000000006001600160a01b031663ad5c46486040518163ffffffff1660e01b8152600401602060405180830381865afa15801561160d573d6000803e3d6000fd5b505050506040513d601f19601f820116820180604052508101906116319190612b93565b6001600160a01b0316886001600160a01b0316141580156116e557507f00000000000000000000000000000000000000000000000000000000000000006001600160a01b031663ad5c46486040518163ffffffff1660e01b8152600401602060405180830381865afa1580156116ab573d6000803e3d6000fd5b505050506040513d601f19601f820116820180604052508101906116cf9190612b93565b6001600160a01b0316876001600160a01b031614155b15611841576040805160038082526080820190925260009160208201606080368337019050509050888160008151811061172157611721612b7d565b60200260200101906001600160a01b031690816001600160a01b0316815250507f00000000000000000000000000000000000000000000000000000000000000006001600160a01b031663ad5c46486040518163ffffffff1660e01b8152600401602060405180830381865afa15801561179f573d6000803e3d6000fd5b505050506040513d601f19601f820116820180604052508101906117c39190612b93565b816001815181106117d6576117d6612b7d565b60200260200101906001600160a01b031690816001600160a01b031681525050878160028151811061180a5761180a612b7d565b60200260200101906001600160a01b031690816001600160a01b031681525050611835818888610e0e565b945092506112cf915050565b97909650945050505050565b6060600082116118cf5760408051600080825260208201909252816118c5565b6118b26040805161010081018252600080825260208201819052918101829052606081018290526080810182905260a0810182905260c081018290529060e082015290565b81526020019060019003908161186d5790505b5091506110f79050565b60008267ffffffffffffffff8111156118ea576118ea61269b565b60405190808252806020026020018201604052801561196057816020015b61194d6040805161010081018252600080825260208201819052918101829052606081018290526080810182905260a0810182905260c081018290529060e082015290565b8152602001906001900390816119085790505b5060035490915084106119745790506110f7565b60005b83811015611ac65760035461198c8683612a01565b10611999575090506110f7565b600060028160036119aa8986612a01565b815481106119ba576119ba612b7d565b60009182526020808320909101546001600160a01b031683528201929092526040018120906119e98885612a01565b815260208082019290925260409081016000208151610100810183528154815260018201546001600160a01b03908116948201949094526002820154841692810192909252600380820154606084015260048201546080840152600582015460a0840152600682015493841660c08401529093509091839160e0840191600160a01b900460ff1690811115611a8057611a80612895565b6003811115611a9157611a91612895565b81525050838381518110611aa757611aa7612b7d565b6020026020010181905250508080611abe90612b62565b915050611977565b509392505050565b611ad6611e45565b600180546001600160a01b0319166001600160a01b0392909216919091179055565b611b00611e45565b6001600160a01b038116611b655760405162461bcd60e51b815260206004820152602660248201527f4f776e61626c653a206e6577206f776e657220697320746865207a65726f206160448201526564647265737360d01b60648201526084016103dc565b611b6e81611e9f565b50565b6001546001600160a01b03166112ea5760405162461bcd60e51b815260206004820152601960248201527f7461736b54726561737572792068617665206e6f74207365740000000000000060448201526064016103dc565b60006103e8611bda836103e6612bb0565b6110f79190612bcf565b6001600160a01b03821673eeeeeeeeeeeeeeeeeeeeeeeeeeeeeeeeeeeeeeee1415611cb2576000836001600160a01b03168260405160006040518083038185875af1925050503d8060008114611c56576040519150601f19603f3d011682016040523d82523d6000602084013e611c5b565b606091505b5050905080611cac5760405162461bcd60e51b815260206004820152601e60248201527f5f7472616e736665723a20455448207472616e73666572206661696c6564000060448201526064016103dc565b50505050565b611cbd828483611eef565b505050565b6060600282511015611d165760405162461bcd60e51b815260206004820152601e60248201527f556e697377617056324c6962726172793a20494e56414c49445f50415448000060448201526064016103dc565b815167ffffffffffffffff811115611d3057611d3061269b565b604051908082528060200260200182016040528015611d59578160200160208202803683370190505b5090508281600081518110611d7057611d70612b7d565b60200260200101818152505060005b60018351611d8d9190612b4b565b811015611ac657600080611de087868581518110611dad57611dad612b7d565b602002602001015187866001611dc39190612a01565b81518110611dd357611dd3612b7d565b6020026020010151611f41565b91509150611e08848481518110611df957611df9612b7d565b6020026020010151838361200b565b84611e14856001612a01565b81518110611e2457611e24612b7d565b60200260200101818152505050508080611e3d90612b62565b915050611d7f565b6000546001600160a01b031633146112ea5760405162461bcd60e51b815260206004820181905260248201527f4f776e61626c653a2063616c6c6572206973206e6f7420746865206f776e657260448201526064016103dc565b600080546001600160a01b038381166001600160a01b0319831681178455604051919092169283917f8be0079c531659141344cd1fd0a4f28419497f9722a3daafe3b4186f6b6457e09190a35050565b604080516001600160a01b038416602482015260448082018490528251808303909101815260649091019091526020810180516001600160e01b031663a9059cbb60e01b179052611cbd90849061212a565b6000806000611f5085856121ff565b509050600080611f618888886122f7565b6001600160a01b0316630902f1ac6040518163ffffffff1660e01b8152600401606060405180830381865afa158015611f9e573d6000803e3d6000fd5b505050506040513d601f19601f82011682018060405250810190611fc29190612c0d565b506001600160701b031691506001600160701b03169150826001600160a01b0316876001600160a01b031614611ff9578082611ffc565b81815b90999098509650505050505050565b60008084116120705760405162461bcd60e51b815260206004820152602b60248201527f556e697377617056324c6962726172793a20494e53554646494349454e545f4960448201526a1394155517d05353d5539560aa1b60648201526084016103dc565b6000831180156120805750600082115b6120dd5760405162461bcd60e51b815260206004820152602860248201527f556e697377617056324c6962726172793a20494e53554646494349454e545f4c604482015267495155494449545960c01b60648201526084016103dc565b60006120eb856103e56123d0565b905060006120f982856123d0565b905060006121138361210d886103e86123d0565b90612437565b905061211f8183612bcf565b979650505050505050565b600061217f826040518060400160405280602081526020017f5361666545524332303a206c6f772d6c6576656c2063616c6c206661696c6564815250856001600160a01b031661248c9092919063ffffffff16565b90508051600014806121a05750808060200190518101906121a09190612aed565b611cbd5760405162461bcd60e51b815260206004820152602a60248201527f5361666545524332303a204552433230206f7065726174696f6e20646964206e6044820152691bdd081cdd58d8d9595960b21b60648201526084016103dc565b600080826001600160a01b0316846001600160a01b031614156122725760405162461bcd60e51b815260206004820152602560248201527f556e697377617056324c6962726172793a204944454e544943414c5f41444452604482015264455353455360d81b60648201526084016103dc565b826001600160a01b0316846001600160a01b031610612292578284612295565b83835b90925090506001600160a01b0382166122f05760405162461bcd60e51b815260206004820152601e60248201527f556e697377617056324c6962726172793a205a45524f5f41444452455353000060448201526064016103dc565b9250929050565b600080600061230685856121ff565b6040516bffffffffffffffffffffffff19606084811b8216602084015283901b16603482015291935091508690604801604051602081830303815290604052805190602001206040516020016123ae9291906001600160f81b0319815260609290921b6bffffffffffffffffffffffff1916600183015260158201527f0bb8a7327a411245127096fe3de27e8b77c9f202a1451409e78b04984d70601a603582015260550190565b60408051601f1981840301815291905280516020909101209695505050505050565b60008115806123f4575082826123e68183612bb0565b92506123f29083612bcf565b145b6110f75760405162461bcd60e51b815260206004820152601460248201527364732d6d6174682d6d756c2d6f766572666c6f7760601b60448201526064016103dc565b6000826124448382612a01565b91508110156110f75760405162461bcd60e51b815260206004820152601460248201527364732d6d6174682d6164642d6f766572666c6f7760601b60448201526064016103dc565b606061249b84846000856124a3565b949350505050565b6060824710156125045760405162461bcd60e51b815260206004820152602660248201527f416464726573733a20696e73756666696369656e742062616c616e636520666f6044820152651c8818d85b1b60d21b60648201526084016103dc565b600080866001600160a01b031685876040516125209190612c89565b60006040518083038185875af1925050503d806000811461255d576040519150601f19603f3d011682016040523d82523d6000602084013e612562565b606091505b509150915061211f87838387606083156125da5782516125d3576001600160a01b0385163b6125d35760405162461bcd60e51b815260206004820152601d60248201527f416464726573733a2063616c6c20746f206e6f6e2d636f6e747261637400000060448201526064016103dc565b508161249b565b61249b83838151156125ef5781518083602001fd5b8060405162461bcd60e51b81526004016103dc9190612ca5565b6001600160a01b0381168114611b6e57600080fd5b6000806040838503121561263157600080fd5b823561263c81612609565b946020939093013593505050565b600080600080600060a0868803121561266257600080fd5b853561266d81612609565b9450602086013561267d81612609565b94979496505050506040830135926060810135926080909101359150565b634e487b7160e01b600052604160045260246000fd5b604051601f8201601f1916810167ffffffffffffffff811182821017156126da576126da61269b565b604052919050565b600067ffffffffffffffff8211156126fc576126fc61269b565b5060051b60200190565b60008060006060848603121561271b57600080fd5b833567ffffffffffffffff81111561273257600080fd5b8401601f8101861361274357600080fd5b80356020612758612753836126e2565b6126b1565b82815260059290921b8301810191818101908984111561277757600080fd5b938201935b8385101561279e57843561278f81612609565b8252938201939082019061277c565b999188013598505060409096013595945050505050565b600080600080608085870312156127cb57600080fd5b84356127d681612609565b935060208501356127e681612609565b93969395505050506040820135916060013590565b600081518084526020808501945080840160005b838110156128345781516001600160a01b03168752958201959082019060010161280f565b509495945050505050565b821515815260406020820152600061249b60408301846127fb565b60006020828403121561286c57600080fd5b5035919050565b6000806040838503121561288657600080fd5b50508035926020909101359150565b634e487b7160e01b600052602160045260246000fd5b600481106128c957634e487b7160e01b600052602160045260246000fd5b9052565b602080825282518282018190526000919060409081850190868401855b8281101561296957815180518552868101516001600160a01b039081168887015286820151811687870152606080830151908701526080808301519087015260a0808301519087015260c0808301519091169086015260e09081015190612953818701836128ab565b50506101009390930192908501906001016128ea565b5091979650505050505050565b60006020828403121561298857600080fd5b813561100f81612609565b60208082526012908201527113dc99195c881a5cc81b9bdd08195e1a5cdd60721b604082015260600190565b60208082526012908201527127b93232b91029ba30ba3ab99022b93937b960711b604082015260600190565b634e487b7160e01b600052601160045260246000fd5b60008219821115612a1457612a146129eb565b500190565b848152608060208201526000612a3260808301866127fb565b6001600160a01b03949094166040830152506060015292915050565b60006020808385031215612a6157600080fd5b825167ffffffffffffffff811115612a7857600080fd5b8301601f81018513612a8957600080fd5b8051612a97612753826126e2565b81815260059190911b82018301908381019087831115612ab657600080fd5b928401925b8284101561211f57835182529284019290840190612abb565b600060208284031215612ae657600080fd5b5051919050565b600060208284031215612aff57600080fd5b8151801515811461100f57600080fd5b85815284602082015260a060408201526000612b2e60a08301866127fb565b6001600160a01b0394909416606083015250608001529392505050565b600082821015612b5d57612b5d6129eb565b500390565b6000600019821415612b7657612b766129eb565b5060010190565b634e487b7160e01b600052603260045260246000fd5b600060208284031215612ba557600080fd5b815161100f81612609565b6000816000190483118215151615612bca57612bca6129eb565b500290565b600082612bec57634e487b7160e01b600052601260045260246000fd5b500490565b80516001600160701b0381168114612c0857600080fd5b919050565b600080600060608486031215612c2257600080fd5b612c2b84612bf1565b9250612c3960208501612bf1565b9150604084015163ffffffff81168114612c5257600080fd5b809150509250925092565b60005b83811015612c78578181015183820152602001612c60565b83811115611cac5750506000910152565b60008251612c9b818460208701612c5d565b9190910192915050565b6020815260008251806020840152612cc4816040850160208701612c5d565b601f01601f1916919091016040019291505056fea2646970667358221220bc2e86080f75b99e9b3b8c23742fea726e6c47d2734018023d3edcb50770cf1c64736f6c634300080c0033",
  "linkReferences": {},
  "deployedLinkReferences": {}
}