{
  "_format": "hh-sol-artifact-1",
  "contractName": "LimitOrder",
  "sourceName": "contracts/flatten/LimitOrder.sol",
  "abi": [
    {
      "inputs": [
        {
          "internalType": "address",
          "name": "_router",
          "type": "address"
        },
        {
          "internalType": "address",
          "name": "_receiver",
          "type": "address"
        }
      ],
      "stateMutability": "nonpayable",
      "type": "constructor"
    },
    {
      "anonymous": false,
      "inputs": [
        {
          "indexed": true,
          "internalType": "address",
          "name": "previousOwner",
          "type": "address"
        },
        {
          "indexed": true,
          "internalType": "address",
          "name": "newOwner",
          "type": "address"
        }
      ],
      "name": "OwnershipTransferred",
      "type": "event"
    },
    {
      "anonymous": false,
      "inputs": [
        {
          "indexed": false,
          "internalType": "address",
          "name": "userAddress",
          "type": "address"
        },
        {
          "indexed": false,
          "internalType": "uint256",
          "name": "taskId",
          "type": "uint256"
        }
      ],
      "name": "cancelTaskEvent",
      "type": "event"
    },
    {
      "anonymous": false,
      "inputs": [
        {
          "indexed": false,
          "internalType": "address",
          "name": "userAddress",
          "type": "address"
        },
        {
          "indexed": false,
          "internalType": "uint256",
          "name": "taskId",
          "type": "uint256"
        },
        {
          "indexed": false,
          "internalType": "address",
          "name": "inToken",
          "type": "address"
        },
        {
          "indexed": false,
          "internalType": "address",
          "name": "outToken",
          "type": "address"
        },
        {
          "indexed": false,
          "internalType": "uint256",
          "name": "inExactNum",
          "type": "uint256"
        },
        {
          "indexed": false,
          "internalType": "uint256",
          "name": "minOut",
          "type": "uint256"
        },
        {
          "indexed": false,
          "internalType": "uint256",
          "name": "deadline",
          "type": "uint256"
        }
      ],
      "name": "createTaskEvent",
      "type": "event"
    },
    {
      "anonymous": false,
      "inputs": [
        {
          "indexed": false,
          "internalType": "address",
          "name": "userAddress",
          "type": "address"
        },
        {
          "indexed": false,
          "internalType": "uint256",
          "name": "taskId",
          "type": "uint256"
        }
      ],
      "name": "execTaskEvent",
      "type": "event"
    },
    {
      "stateMutability": "payable",
      "type": "fallback"
    },
    {
      "inputs": [
        {
          "internalType": "address",
          "name": "userAddress",
          "type": "address"
        },
        {
          "internalType": "uint256",
          "name": "taskId",
          "type": "uint256"
        }
      ],
      "name": "cancelTask",
      "outputs": [],
      "stateMutability": "nonpayable",
      "type": "function"
    },
    {
      "inputs": [
        {
          "internalType": "address",
          "name": "inToken",
          "type": "address"
        },
        {
          "internalType": "address",
          "name": "outToken",
          "type": "address"
        },
        {
          "internalType": "uint256",
          "name": "inExactNum",
          "type": "uint256"
        },
        {
          "internalType": "uint256",
          "name": "minOut",
          "type": "uint256"
        }
      ],
      "name": "checkSwapTokenToTokenValid",
      "outputs": [
        {
          "internalType": "bool",
          "name": "",
          "type": "bool"
        },
        {
          "internalType": "address[]",
          "name": "",
          "type": "address[]"
        }
      ],
      "stateMutability": "view",
      "type": "function"
    },
    {
      "inputs": [
        {
          "internalType": "address[]",
          "name": "path",
          "type": "address[]"
        },
        {
          "internalType": "uint256",
          "name": "inExactNum",
          "type": "uint256"
        },
        {
          "internalType": "uint256",
          "name": "minOut",
          "type": "uint256"
        }
      ],
      "name": "checkSwapVaildByPath",
      "outputs": [
        {
          "internalType": "bool",
          "name": "",
          "type": "bool"
        }
      ],
      "stateMutability": "view",
      "type": "function"
    },
    {
      "inputs": [
        {
          "internalType": "address",
          "name": "inToken",
          "type": "address"
        },
        {
          "internalType": "address",
          "name": "outToken",
          "type": "address"
        },
        {
          "internalType": "uint256",
          "name": "inExactNum",
          "type": "uint256"
        },
        {
          "internalType": "uint256",
          "name": "minOut",
          "type": "uint256"
        }
      ],
      "name": "checkSwapValid",
      "outputs": [
        {
          "internalType": "bool",
          "name": "",
          "type": "bool"
        },
        {
          "internalType": "address[]",
          "name": "",
          "type": "address[]"
        }
      ],
      "stateMutability": "view",
      "type": "function"
    },
    {
      "inputs": [
        {
          "internalType": "address",
          "name": "userAddress",
          "type": "address"
        },
        {
          "internalType": "uint256",
          "name": "taskId",
          "type": "uint256"
        }
      ],
      "name": "checkTaskCanExec",
      "outputs": [
        {
          "internalType": "bool",
          "name": "",
          "type": "bool"
        }
      ],
      "stateMutability": "view",
      "type": "function"
    },
    {
      "inputs": [
        {
          "internalType": "address",
          "name": "inToken",
          "type": "address"
        },
        {
          "internalType": "address",
          "name": "outToken",
          "type": "address"
        },
        {
          "internalType": "uint256",
          "name": "inExactNum",
          "type": "uint256"
        },
        {
          "internalType": "uint256",
          "name": "minOut",
          "type": "uint256"
        }
      ],
      "name": "createTask",
      "outputs": [
        {
          "internalType": "uint256",
          "name": "",
          "type": "uint256"
        }
      ],
      "stateMutability": "payable",
      "type": "function"
    },
    {
      "inputs": [
        {
          "internalType": "address",
          "name": "userAddress",
          "type": "address"
        },
        {
          "internalType": "uint256",
          "name": "taskId",
          "type": "uint256"
        }
      ],
      "name": "execTask",
      "outputs": [],
      "stateMutability": "nonpayable",
      "type": "function"
    },
    {
      "inputs": [],
      "name": "factory",
      "outputs": [
        {
          "internalType": "contract IUniswapV2Factory",
          "name": "",
          "type": "address"
        }
      ],
      "stateMutability": "view",
      "type": "function"
    },
    {
      "inputs": [],
      "name": "getLength",
      "outputs": [
        {
          "internalType": "uint256",
          "name": "",
          "type": "uint256"
        }
      ],
      "stateMutability": "view",
      "type": "function"
    },
    {
      "inputs": [
        {
          "internalType": "uint256",
          "name": "from",
          "type": "uint256"
        },
        {
          "internalType": "uint256",
          "name": "offset",
          "type": "uint256"
        }
      ],
      "name": "getOrderInfo",
      "outputs": [
        {
          "components": [
            {
              "internalType": "uint256",
              "name": "index",
              "type": "uint256"
            },
            {
              "internalType": "address",
              "name": "inToken",
              "type": "address"
            },
            {
              "internalType": "address",
              "name": "outToken",
              "type": "address"
            },
            {
              "internalType": "uint256",
              "name": "inExactAmount",
              "type": "uint256"
            },
            {
              "internalType": "uint256",
              "name": "outMinAmount",
              "type": "uint256"
            },
            {
              "internalType": "uint256",
              "name": "deadline",
              "type": "uint256"
            },
            {
              "internalType": "address",
              "name": "userAddress",
              "type": "address"
            },
            {
              "internalType": "enum OrderStatus",
              "name": "orderStatus",
              "type": "uint8"
            }
          ],
          "internalType": "struct SingleOrder[]",
          "name": "",
          "type": "tuple[]"
        }
      ],
      "stateMutability": "view",
      "type": "function"
    },
    {
      "inputs": [
        {
          "internalType": "uint256",
          "name": "",
          "type": "uint256"
        }
      ],
      "name": "orderList",
      "outputs": [
        {
          "internalType": "address",
          "name": "",
          "type": "address"
        }
      ],
      "stateMutability": "view",
      "type": "function"
    },
    {
      "inputs": [],
      "name": "owner",
      "outputs": [
        {
          "internalType": "address",
          "name": "",
          "type": "address"
        }
      ],
      "stateMutability": "view",
      "type": "function"
    },
    {
      "inputs": [],
      "name": "renounceOwnership",
      "outputs": [],
      "stateMutability": "nonpayable",
      "type": "function"
    },
    {
      "inputs": [],
      "name": "router",
      "outputs": [
        {
          "internalType": "contract IUniswapV2Router02",
          "name": "",
          "type": "address"
        }
      ],
      "stateMutability": "view",
      "type": "function"
    },
    {
      "inputs": [
        {
          "internalType": "address",
          "name": "_taskTreasury",
          "type": "address"
        }
      ],
      "name": "setTreasury",
      "outputs": [],
      "stateMutability": "nonpayable",
      "type": "function"
    },
    {
      "inputs": [],
      "name": "taskTreasury",
      "outputs": [
        {
          "internalType": "contract ITaskTreasury",
          "name": "",
          "type": "address"
        }
      ],
      "stateMutability": "view",
      "type": "function"
    },
    {
      "inputs": [
        {
          "internalType": "address",
          "name": "newOwner",
          "type": "address"
        }
      ],
      "name": "transferOwnership",
      "outputs": [],
      "stateMutability": "nonpayable",
      "type": "function"
    }
  ],
  "bytecode": "0x60c06040523480156200001157600080fd5b5060405162002e7338038062002e7383398101604081905262000034916200014f565b6200003f33620000e2565b6001600160a01b03821660808190526040805163c45a015560e01b8152905163c45a0155916004808201926020929091908290030181865afa1580156200008a573d6000803e3d6000fd5b505050506040513d601f19601f82011682018060405250810190620000b0919062000187565b6001600160a01b0390811660a0526000600455600580546001600160a01b0319169290911691909117905550620001ac565b600080546001600160a01b038381166001600160a01b0319831681178455604051919092169283917f8be0079c531659141344cd1fd0a4f28419497f9722a3daafe3b4186f6b6457e09190a35050565b80516001600160a01b03811681146200014a57600080fd5b919050565b600080604083850312156200016357600080fd5b6200016e8362000132565b91506200017e6020840162000132565b90509250929050565b6000602082840312156200019a57600080fd5b620001a58262000132565b9392505050565b60805160a051612c546200021f6000396000818161028d01528181610a330152610b4601526000818161034e0152818161059801528181610711015281816107b90152818161086b01528181610d1c01528181610dd80152818161114d015281816111eb01526112df0152612c546000f3fe6080604052600436106100f55760003560e01c8063983a839d1161008f578063d08c256a11610061578063d08c256a146102af578063e60a3213146102dc578063f0f44260146102fc578063f2fde38b1461031c578063f887ea401461033c57005b8063983a839d14610225578063b810a35414610245578063be1c766b14610266578063c45a01551461027b57005b8063715018a6116100c8578063715018a61461019a57806376f75e7f146101af57806386be69cc146101e75780638da5cb5b1461020757005b806310c1367e146100f75780634ad3cccf146101175780636adfd7c41461014c5780636d8a41551461016c575b005b34801561010357600080fd5b506100f56101123660046125b5565b610370565b34801561012357600080fd5b5061013761013236600461264c565b6109aa565b60405190151581526020015b60405180910390f35b34801561015857600080fd5b506101376101673660046125b5565b610bb2565b34801561017857600080fd5b5061018c6101873660046126fb565b610c99565b604051610143929190612785565b3480156101a657600080fd5b506100f5610e74565b3480156101bb57600080fd5b506101cf6101ca3660046127a0565b610e88565b6040516001600160a01b039091168152602001610143565b3480156101f357600080fd5b506100f56102023660046125b5565b610eb2565b34801561021357600080fd5b506000546001600160a01b03166101cf565b34801561023157600080fd5b5061018c6102403660046126fb565b6110a6565b6102586102533660046126fb565b6113e9565b604051908152602001610143565b34801561027257600080fd5b50600354610258565b34801561028757600080fd5b506101cf7f000000000000000000000000000000000000000000000000000000000000000081565b3480156102bb57600080fd5b506102cf6102ca3660046127b9565b611851565b6040516101439190612813565b3480156102e857600080fd5b506001546101cf906001600160a01b031681565b34801561030857600080fd5b506100f56103173660046128bc565b611ad2565b34801561032857600080fd5b506100f56103373660046128bc565b611afc565b34801561034857600080fd5b506101cf7f000000000000000000000000000000000000000000000000000000000000000081565b610378611b75565b6001600160a01b038216600090815260026020908152604080832084845291829052822090916006820154600160a01b900460ff1660038111156103be576103be6127db565b14156103e55760405162461bcd60e51b81526004016103dc906128d9565b60405180910390fd5b60016006820154600160a01b900460ff166003811115610407576104076127db565b146104245760405162461bcd60e51b81526004016103dc90612905565b428160050154101561046b5760405162461bcd60e51b815260206004820152601060248201526f13dc99195c881a5cc8115e1c1a5c995960821b60448201526064016103dc565b60018054908201546003830154604051631bc64ab360e21b81526001600160a01b03928316600482015260248101919091528682166044820152911690636f192acc90606401600060405180830381600087803b1580156104cb57600080fd5b505af11580156104df573d6000803e3d6000fd5b5050505060006104f28260030154611bcd565b6001830154600284015460048501549293506000928392610523926001600160a01b03918216929116908690610c99565b909250905060018215151461056d5760405162461bcd60e51b815260206004820152601060248201526f737761702063616e6e6f74206578656360801b60448201526064016103dc565b60018401546001600160a01b031673eeeeeeeeeeeeeeeeeeeeeeeeeeeeeeeeeeeeeeee1415610647577f00000000000000000000000000000000000000000000000000000000000000006001600160a01b0316637ff36ab5848660040154848b426104b06105db9190612947565b6040518663ffffffff1660e01b81526004016105fa949392919061295f565b60006040518083038185885af1158015610618573d6000803e3d6000fd5b50505050506040513d6000823e601f3d908101601f191682016040526106419190810190612994565b50610919565b600184015460038501546040516370a0823160e01b81523060048201526001600160a01b039092169182906370a0823190602401602060405180830381865afa158015610698573d6000803e3d6000fd5b505050506040513d601f19601f820116820180604052508101906106bc9190612a1a565b146106fa5760405162461bcd60e51b815260206004820152600e60248201526d3ab9b2a33ab732399032b93937b960911b60448201526064016103dc565b60405163095ea7b360e01b81526001600160a01b037f0000000000000000000000000000000000000000000000000000000000000000811660048301526024820186905282169063095ea7b3906044016020604051808303816000875af1158015610769573d6000803e3d6000fd5b505050506040513d601f19601f8201168201806040525081019061078d9190612a33565b5060028501546001600160a01b031673eeeeeeeeeeeeeeeeeeeeeeeeeeeeeeeeeeeeeeee1415610869577f00000000000000000000000000000000000000000000000000000000000000006001600160a01b03166318cbafe5858760040154858c426104b06107fc9190612947565b6040518663ffffffff1660e01b815260040161081c959493929190612a55565b6000604051808303816000875af115801561083b573d6000803e3d6000fd5b505050506040513d6000823e601f3d908101601f191682016040526108639190810190612994565b50610917565b7f00000000000000000000000000000000000000000000000000000000000000006001600160a01b03166338ed1739858760040154858c426104b06108ae9190612947565b6040518663ffffffff1660e01b81526004016108ce959493929190612a55565b6000604051808303816000875af11580156108ed573d6000803e3d6000fd5b505050506040513d6000823e601f3d908101601f191682016040526109159190810190612994565b505b505b60055460018501546003860154610948926001600160a01b03908116921690610943908790612a91565b611be8565b600684018054600160a11b60ff60a01b19909116179055604080516001600160a01b0389168152602081018890527f024ab9c11da58e6d347fff9de4767c1e4af7da69aad12008e5677626b93f8ce0910160405180910390a150505050505050565b6000600284511015610a0e5760405162461bcd60e51b815260206004820152602760248201527f70617468206c656e677468206973207265717569726564206e6f74206c657373604482015266103a3430b7101960c91b60648201526084016103dc565b60005b60018551610a1f9190612a91565b811015610b3e5760006001600160a01b03167f00000000000000000000000000000000000000000000000000000000000000006001600160a01b031663e6a43905878481518110610a7257610a72612aa8565b602002602001015188856001610a889190612947565b81518110610a9857610a98612aa8565b60200260200101516040518363ffffffff1660e01b8152600401610ad29291906001600160a01b0392831681529116602082015260400190565b602060405180830381865afa158015610aef573d6000803e3d6000fd5b505050506040513d601f19601f82011682018060405250810190610b139190612abe565b6001600160a01b03161415610b2c576000915050610bab565b80610b3681612adb565b915050610a11565b506000610b6c7f00000000000000000000000000000000000000000000000000000000000000008587611cc6565b9050828160018351610b7e9190612a91565b81518110610b8e57610b8e612aa8565b602002602001015110610ba5576001915050610bab565b60009150505b9392505050565b6001600160a01b0382166000908152600260209081526040808320848452918290528220826006820154600160a01b900460ff166003811115610bf757610bf76127db565b1415610c155760405162461bcd60e51b81526004016103dc906128d9565b60016006820154600160a01b900460ff166003811115610c3757610c376127db565b14610c545760405162461bcd60e51b81526004016103dc90612905565b600181015460028201546003830154600092610c8c926001600160a01b0391821692911690610c8290611bcd565b8560040154610c99565b5093505050505b92915050565b60006060846001600160a01b0316866001600160a01b03161415610cf25760405162461bcd60e51b815260206004820152601060248201526f39b0b6b2903a37b5b2b71032b93937b960811b60448201526064016103dc565b6001600160a01b03861673eeeeeeeeeeeeeeeeeeeeeeeeeeeeeeeeeeeeeeee1415610dad57610da47f00000000000000000000000000000000000000000000000000000000000000006001600160a01b031663ad5c46486040518163ffffffff1660e01b8152600401602060405180830381865afa158015610d78573d6000803e3d6000fd5b505050506040513d601f19601f82011682018060405250810190610d9c9190612abe565b8686866110a6565b91509150610e6b565b6001600160a01b03851673eeeeeeeeeeeeeeeeeeeeeeeeeeeeeeeeeeeeeeee1415610e5f57610da4867f00000000000000000000000000000000000000000000000000000000000000006001600160a01b031663ad5c46486040518163ffffffff1660e01b8152600401602060405180830381865afa158015610e34573d6000803e3d6000fd5b505050506040513d601f19601f82011682018060405250810190610e589190612abe565b86866110a6565b610da4868686866110a6565b94509492505050565b610e7c611e49565b610e866000611ea3565b565b60038181548110610e9857600080fd5b6000918252602090912001546001600160a01b0316905081565b610eba611b75565b6001600160a01b0382166000818152600260209081526040808320858452918290529091209091331480610ef857506000546001600160a01b031633145b610f315760405162461bcd60e51b815260206004820152600a6024820152693ab9b2b91032b93937b960b11b60448201526064016103dc565b60006006820154600160a01b900460ff166003811115610f5357610f536127db565b1415610f715760405162461bcd60e51b81526004016103dc906128d9565b60016006820154600160a01b900460ff166003811115610f9357610f936127db565b14610fb05760405162461bcd60e51b81526004016103dc90612905565b60018054908201546003830154604051631bc64ab360e21b81526001600160a01b03928316600482015260248101919091528682166044820152911690636f192acc90606401600060405180830381600087803b15801561101057600080fd5b505af1158015611024573d6000803e3d6000fd5b50505060018201546003830154611047925086916001600160a01b031690611be8565b600681018054600360a01b60ff60a01b19909116179055604080516001600160a01b0386168152602081018590527f87479b54fef2a4d0916d52df11946c071a27eefeb73bb56d56d3b2c50aec8c06910160405180910390a150505050565b604080516002808252606082810190935260009291839181602001602082028036833701905050905086816000815181106110e3576110e3612aa8565b60200260200101906001600160a01b031690816001600160a01b031681525050858160018151811061111757611117612aa8565b60200260200101906001600160a01b031690816001600160a01b03168152505060006111448287876109aa565b9050806113dd577f00000000000000000000000000000000000000000000000000000000000000006001600160a01b031663ad5c46486040518163ffffffff1660e01b8152600401602060405180830381865afa1580156111a9573d6000803e3d6000fd5b505050506040513d601f19601f820116820180604052508101906111cd9190612abe565b6001600160a01b0316886001600160a01b03161415801561128157507f00000000000000000000000000000000000000000000000000000000000000006001600160a01b031663ad5c46486040518163ffffffff1660e01b8152600401602060405180830381865afa158015611247573d6000803e3d6000fd5b505050506040513d601f19601f8201168201806040525081019061126b9190612abe565b6001600160a01b0316876001600160a01b031614155b156113dd57604080516003808252608082019092526000916020820160608036833701905050905088816000815181106112bd576112bd612aa8565b60200260200101906001600160a01b031690816001600160a01b0316815250507f00000000000000000000000000000000000000000000000000000000000000006001600160a01b031663ad5c46486040518163ffffffff1660e01b8152600401602060405180830381865afa15801561133b573d6000803e3d6000fd5b505050506040513d601f19601f8201168201806040525081019061135f9190612abe565b8160018151811061137257611372612aa8565b60200260200101906001600160a01b031690816001600160a01b03168152505087816002815181106113a6576113a6612aa8565b60200260200101906001600160a01b031690816001600160a01b0316815250506113d18188886109aa565b94509250610e6b915050565b97909650945050505050565b60006113f3611b75565b6001600160a01b03851673eeeeeeeeeeeeeeeeeeeeeeeeeeeeeeeeeeeeeeee14156114cd5782341461145a5760405162461bcd60e51b815260206004820152601060248201526f22aa241020b6b7bab73a1022b93937b960811b60448201526064016103dc565b60015460405163c1461d5760e01b81523360048201526001600160a01b038781166024830152604482018690529091169063c1461d579085906064016000604051808303818588803b1580156114af57600080fd5b505af11580156114c3573d6000803e3d6000fd5b50505050506116f1565b604051636eb1769f60e11b815233600482015230602482015285906000906001600160a01b0383169063dd62ed3e90604401602060405180830381865afa15801561151c573d6000803e3d6000fd5b505050506040513d601f19601f820116820180604052508101906115409190612a1a565b9050848110156115925760405162461bcd60e51b815260206004820152601960248201527f436865636b2074686520746f6b656e20616c6c6f77616e63650000000000000060448201526064016103dc565b6040516323b872dd60e01b8152336004820152306024820152604481018690526001600160a01b038316906323b872dd906064016020604051808303816000875af11580156115e5573d6000803e3d6000fd5b505050506040513d601f19601f820116820180604052508101906116099190612a33565b5060015460405163095ea7b360e01b81526001600160a01b039182166004820152602481018790529083169063095ea7b3906044016020604051808303816000875af115801561165d573d6000803e3d6000fd5b505050506040513d601f19601f820116820180604052508101906116819190612a33565b5060015460405163c1461d5760e01b81523360048201526001600160a01b038981166024830152604482018890529091169063c1461d5790606401600060405180830381600087803b1580156116d657600080fd5b505af11580156116ea573d6000803e3d6000fd5b5050505050505b336000818152600260208181526040808420600480548652928190529084206003805460018082018355968290527fc2575a0e9e593c00f959f8c92f12db2869c3395a3b0502d05e2516446f71f85b0180546001600160a01b0319908116891790915584548355958201805487166001600160a01b038e81169190911790915594820180548716958c16959095179094559283018890559082018690556006820180549093169093179091556117aa426276a700612947565b6005820181905560068201805460ff60a01b1916600160a01b17905581546040805133815260208101929092526001600160a01b038a811683830152891660608301526080820188905260a0820187905260c082019290925290517f28a2a79cb8a7fa3013da159d00565f034030c44bcdc5ce7ebc3758f6374b52a49181900360e00190a16004805490600061183f83612adb565b9091555050549150505b949350505050565b6060600082116118d35760408051600080825260208201909252816118c9565b6118b66040805161010081018252600080825260208201819052918101829052606081018290526080810182905260a0810182905260c081018290529060e082015290565b8152602001906001900390816118715790505b509150610c939050565b60008267ffffffffffffffff8111156118ee576118ee6125e1565b60405190808252806020026020018201604052801561196457816020015b6119516040805161010081018252600080825260208201819052918101829052606081018290526080810182905260a0810182905260c081018290529060e082015290565b81526020019060019003908161190c5790505b506003549091508410611978579050610c93565b60005b83811015611aca576003546119908683612947565b1061199d57509050610c93565b600060028160036119ae8986612947565b815481106119be576119be612aa8565b60009182526020808320909101546001600160a01b031683528201929092526040018120906119ed8885612947565b815260208082019290925260409081016000208151610100810183528154815260018201546001600160a01b03908116948201949094526002820154841692810192909252600380820154606084015260048201546080840152600582015460a0840152600682015493841660c08401529093509091839160e0840191600160a01b900460ff1690811115611a8457611a846127db565b6003811115611a9557611a956127db565b81525050838381518110611aab57611aab612aa8565b6020026020010181905250508080611ac290612adb565b91505061197b565b509392505050565b611ada611e49565b600180546001600160a01b0319166001600160a01b0392909216919091179055565b611b04611e49565b6001600160a01b038116611b695760405162461bcd60e51b815260206004820152602660248201527f4f776e61626c653a206e6577206f776e657220697320746865207a65726f206160448201526564647265737360d01b60648201526084016103dc565b611b7281611ea3565b50565b6001546001600160a01b0316610e865760405162461bcd60e51b815260206004820152601960248201527f7461736b54726561737572792068617665206e6f74207365740000000000000060448201526064016103dc565b60006103e8611bde836103e6612af6565b610c939190612b15565b6001600160a01b03821673eeeeeeeeeeeeeeeeeeeeeeeeeeeeeeeeeeeeeeee1415611cb6576000836001600160a01b03168260405160006040518083038185875af1925050503d8060008114611c5a576040519150601f19603f3d011682016040523d82523d6000602084013e611c5f565b606091505b5050905080611cb05760405162461bcd60e51b815260206004820152601e60248201527f5f7472616e736665723a20455448207472616e73666572206661696c6564000060448201526064016103dc565b50505050565b611cc1828483611ef3565b505050565b6060600282511015611d1a5760405162461bcd60e51b815260206004820152601e60248201527f556e697377617056324c6962726172793a20494e56414c49445f50415448000060448201526064016103dc565b815167ffffffffffffffff811115611d3457611d346125e1565b604051908082528060200260200182016040528015611d5d578160200160208202803683370190505b5090508281600081518110611d7457611d74612aa8565b60200260200101818152505060005b60018351611d919190612a91565b811015611aca57600080611de487868581518110611db157611db1612aa8565b602002602001015187866001611dc79190612947565b81518110611dd757611dd7612aa8565b6020026020010151611f45565b91509150611e0c848481518110611dfd57611dfd612aa8565b6020026020010151838361200f565b84611e18856001612947565b81518110611e2857611e28612aa8565b60200260200101818152505050508080611e4190612adb565b915050611d83565b6000546001600160a01b03163314610e865760405162461bcd60e51b815260206004820181905260248201527f4f776e61626c653a2063616c6c6572206973206e6f7420746865206f776e657260448201526064016103dc565b600080546001600160a01b038381166001600160a01b0319831681178455604051919092169283917f8be0079c531659141344cd1fd0a4f28419497f9722a3daafe3b4186f6b6457e09190a35050565b604080516001600160a01b038416602482015260448082018490528251808303909101815260649091019091526020810180516001600160e01b031663a9059cbb60e01b179052611cc190849061212e565b6000806000611f548585612203565b509050600080611f658888886122fb565b6001600160a01b0316630902f1ac6040518163ffffffff1660e01b8152600401606060405180830381865afa158015611fa2573d6000803e3d6000fd5b505050506040513d601f19601f82011682018060405250810190611fc69190612b53565b506001600160701b031691506001600160701b03169150826001600160a01b0316876001600160a01b031614611ffd578082612000565b81815b90999098509650505050505050565b60008084116120745760405162461bcd60e51b815260206004820152602b60248201527f556e697377617056324c6962726172793a20494e53554646494349454e545f4960448201526a1394155517d05353d5539560aa1b60648201526084016103dc565b6000831180156120845750600082115b6120e15760405162461bcd60e51b815260206004820152602860248201527f556e697377617056324c6962726172793a20494e53554646494349454e545f4c604482015267495155494449545960c01b60648201526084016103dc565b60006120ef856103e56123d4565b905060006120fd82856123d4565b9050600061211783612111886103e86123d4565b9061243b565b90506121238183612b15565b979650505050505050565b6000612183826040518060400160405280602081526020017f5361666545524332303a206c6f772d6c6576656c2063616c6c206661696c6564815250856001600160a01b03166124909092919063ffffffff16565b90508051600014806121a45750808060200190518101906121a49190612a33565b611cc15760405162461bcd60e51b815260206004820152602a60248201527f5361666545524332303a204552433230206f7065726174696f6e20646964206e6044820152691bdd081cdd58d8d9595960b21b60648201526084016103dc565b600080826001600160a01b0316846001600160a01b031614156122765760405162461bcd60e51b815260206004820152602560248201527f556e697377617056324c6962726172793a204944454e544943414c5f41444452604482015264455353455360d81b60648201526084016103dc565b826001600160a01b0316846001600160a01b031610612296578284612299565b83835b90925090506001600160a01b0382166122f45760405162461bcd60e51b815260206004820152601e60248201527f556e697377617056324c6962726172793a205a45524f5f41444452455353000060448201526064016103dc565b9250929050565b600080600061230a8585612203565b6040516bffffffffffffffffffffffff19606084811b8216602084015283901b16603482015291935091508690604801604051602081830303815290604052805190602001206040516020016123b29291906001600160f81b0319815260609290921b6bffffffffffffffffffffffff1916600183015260158201527f0bb8a7327a411245127096fe3de27e8b77c9f202a1451409e78b04984d70601a603582015260550190565b60408051601f1981840301815291905280516020909101209695505050505050565b60008115806123f8575082826123ea8183612af6565b92506123f69083612b15565b145b610c935760405162461bcd60e51b815260206004820152601460248201527364732d6d6174682d6d756c2d6f766572666c6f7760601b60448201526064016103dc565b6000826124488382612947565b9150811015610c935760405162461bcd60e51b815260206004820152601460248201527364732d6d6174682d6164642d6f766572666c6f7760601b60448201526064016103dc565b6060611849848460008585600080866001600160a01b031685876040516124b79190612bcf565b60006040518083038185875af1925050503d80600081146124f4576040519150601f19603f3d011682016040523d82523d6000602084013e6124f9565b606091505b5091509150612123878383876060831561257157825161256a576001600160a01b0385163b61256a5760405162461bcd60e51b815260206004820152601d60248201527f416464726573733a2063616c6c20746f206e6f6e2d636f6e747261637400000060448201526064016103dc565b5081611849565b61184983838151156125865781518083602001fd5b8060405162461bcd60e51b81526004016103dc9190612beb565b6001600160a01b0381168114611b7257600080fd5b600080604083850312156125c857600080fd5b82356125d3816125a0565b946020939093013593505050565b634e487b7160e01b600052604160045260246000fd5b604051601f8201601f1916810167ffffffffffffffff81118282101715612620576126206125e1565b604052919050565b600067ffffffffffffffff821115612642576126426125e1565b5060051b60200190565b60008060006060848603121561266157600080fd5b833567ffffffffffffffff81111561267857600080fd5b8401601f8101861361268957600080fd5b8035602061269e61269983612628565b6125f7565b82815260059290921b830181019181810190898411156126bd57600080fd5b938201935b838510156126e45784356126d5816125a0565b825293820193908201906126c2565b999188013598505060409096013595945050505050565b6000806000806080858703121561271157600080fd5b843561271c816125a0565b9350602085013561272c816125a0565b93969395505050506040820135916060013590565b600081518084526020808501945080840160005b8381101561277a5781516001600160a01b031687529582019590820190600101612755565b509495945050505050565b82151581526040602082015260006118496040830184612741565b6000602082840312156127b257600080fd5b5035919050565b600080604083850312156127cc57600080fd5b50508035926020909101359150565b634e487b7160e01b600052602160045260246000fd5b6004811061280f57634e487b7160e01b600052602160045260246000fd5b9052565b602080825282518282018190526000919060409081850190868401855b828110156128af57815180518552868101516001600160a01b039081168887015286820151811687870152606080830151908701526080808301519087015260a0808301519087015260c0808301519091169086015260e09081015190612899818701836127f1565b5050610100939093019290850190600101612830565b5091979650505050505050565b6000602082840312156128ce57600080fd5b8135610bab816125a0565b60208082526012908201527113dc99195c881a5cc81b9bdd08195e1a5cdd60721b604082015260600190565b60208082526012908201527127b93232b91029ba30ba3ab99022b93937b960711b604082015260600190565b634e487b7160e01b600052601160045260246000fd5b6000821982111561295a5761295a612931565b500190565b8481526080602082015260006129786080830186612741565b6001600160a01b03949094166040830152506060015292915050565b600060208083850312156129a757600080fd5b825167ffffffffffffffff8111156129be57600080fd5b8301601f810185136129cf57600080fd5b80516129dd61269982612628565b81815260059190911b820183019083810190878311156129fc57600080fd5b928401925b8284101561212357835182529284019290840190612a01565b600060208284031215612a2c57600080fd5b5051919050565b600060208284031215612a4557600080fd5b81518015158114610bab57600080fd5b85815284602082015260a060408201526000612a7460a0830186612741565b6001600160a01b0394909416606083015250608001529392505050565b600082821015612aa357612aa3612931565b500390565b634e487b7160e01b600052603260045260246000fd5b600060208284031215612ad057600080fd5b8151610bab816125a0565b6000600019821415612aef57612aef612931565b5060010190565b6000816000190483118215151615612b1057612b10612931565b500290565b600082612b3257634e487b7160e01b600052601260045260246000fd5b500490565b80516001600160701b0381168114612b4e57600080fd5b919050565b600080600060608486031215612b6857600080fd5b612b7184612b37565b9250612b7f60208501612b37565b9150604084015163ffffffff81168114612b9857600080fd5b809150509250925092565b60005b83811015612bbe578181015183820152602001612ba6565b83811115611cb05750506000910152565b60008251612be1818460208701612ba3565b9190910192915050565b6020815260008251806020840152612c0a816040850160208701612ba3565b601f01601f1916919091016040019291505056fea26469706673582212209ea6bd307ad7e5e9eb24e5d88265c56f61f2dc9539dbe0c311a89e10c074c26064736f6c634300080c0033",
  "linkReferences": {},
  "deployedLinkReferences": {}
}